:020000040000FA
:10000000031383168601880107308100831286015D
:1000100088010C201F200A28081057200130860074
:100020005320572038308600532057200C3086004C
:100030005320572006308600532057200800081010
:100040000230860053205720081457205430860071
:100050005320572061308600532057206C30860093
:100060005320572068308600532057206130860087
:100070005320572000308600532057204D308600F3
:100080005320572075308600532057207430860047
:10009000532057206C30860053205720753086003F
:1000A00053205720080088140000881008000530ED
:0A00B00081000B1D59280B110800F8
:02400E00313F40
:00000001FF
